:020000040800F2
:10000000C84B00209D010008BF32000845300008A1
:10001000BD320008510A0008C53A0008000000007F
:10002000000000000000000000000000FB3200089B
:10003000050B000800000000C1320008FD32000876
:10004000B7010008B7010008B7010008B7010008B0
:10005000B7010008B7010008B7010008B7010008A0
:10006000B7010008B7010008B7010008B701000890
:10007000B7010008B7010008B7010008B701000880
:10008000B7010008B7010008B7010008B701000870
:10009000B7010008B7010008B7010008B701000860
:1000A000F1330008B7010008B7010008B7010008E4
:1000B000B7010008B7010008B7010008B701000840
:1000C000B7010008B7010008B7010008B701000830
:1000D000B7010008B7010008B7010008B93A0008E5
:1000E000B7010008B7010008B7010008B701000810
:1000F00009340008FD330008B7010008B701000803
:10010000B7010008B7010008B7010008B7010008EF
:10011000B7010008B7010008B7010008B7010008DF
:10012000550A0008B7010008B7010008B701000828
:10013000B7010008B7010008B7010008B7010008BF
:10014000B7010008B7010008B7010008B7010008AF
:10015000B7010008B7010008B7010008B70100089F
:10016000B7010008B7010008B7010008B70100088F
:10017000B7010008B7010008B7010008000000003F
:10018000B7010008B7010008DFF80CD000F048FB09
:100190000048004719460008C84B00200648804721
:1001A00006480047FEE7FEE7FEE7FEE7FEE7FEE75C
:1001B000FEE7FEE7FEE7FEE79D3300088901000841
:1001C0002DE9F05F0546002092469B46884606468C
:1001D000814640241BE0284641464746224600F01F
:1001E00050FA53465A46C01A914110D31146184648
:1001F000224600F037FA2D1A67EB01084F462246D7
:100200000120002100F02EFA17EB00094E41201EBC
:10021000A4F10104DFDC484631462A464346BDE8E6
:10022000F09FD2B201E000F8012B491EFBD27047CB
:100230000022F6E710B513460A4604461946FFF7B2
:10024000F0FF204610BD2DE9FE4F804681EA0300F5
:10025000C00F0C46009021F0004123F00045B8EBA0
:100260000200A94105D24046214690461C460B4655
:10027000024623F00040104347D0270DC7F30A0081
:10028000C3F30A510290401A019040286BDAC3F37D
:10029000130040F4801B0098924620B10023D2EB5B
:1002A000030A63EB0B0B01985946C0F1400250461C
:1002B00000F0D8F906460D4650465946019A00F01E
:1002C000F0F910EB08006141002487EA115284EA3A
:1002D000E7731A4340D0009A62B3019A012A4FEAA9
:1002E000075215DC001B61EB02014FF0004202EAED
:1002F0000752CDE90042001C41F5801132462B46E1
:1003000000F027FA03B0BDE8F08F40462146F9E738
:10031000001B61EB0201001C41F5801300185B41DA
:100320002018A2F5001747EB030140EAD570B61973
:100330006D4111E06D084FEA360645EAC0754FEA97
:100340000752001B61EB0201001C41F580114908B6
:100350004FEA30000019514132462B4603B0BDE848
:10036000F04F00F0E7B90098012240000023D0EBE5
:10037000020263EBE073009821464FEAE074B8EBA9
:10038000000061EB0401E9E783F000435BE781F0E3
:10039000004158E72DE9FE4F81EA030404F00044D0
:1003A00021F0004100944FF0000B23F0004350EA8D
:1003B00001045ED052EA03045BD0C3F30A54C1F3D4
:1003C0000A552C44A4F2F3340194A0FB0254C1F367
:1003D000130141F48011C3F3130343F4801301FBB1
:1003E000024400FB034E840A970A44EA815447EA18
:1003F0008357A4FB076802958D0A05FB07854FEA22
:10040000932C04FB0C542705029D4FEA065847EA3B
:100410001637B5EB08056EEB070C870E920E47EA10
:10042000811742EA8312A7FB0201B6EB0B0164EBD2
:1004300000042B0D43EA0C335E1844EB1C50DA46E3
:100440005146E7FB0201C5F313044FEA0B3343EABD
:1004500014534FEA0432019C43EA0603A4F10C044E
:100460000294009CCDE900B400F073F903B0BDE83C
:10047000F08F00200146F9E72DE9F04D81EA0304F1
:1004800004F0004B21F0004514464FF0000A23F021
:10049000004150EA050220D054EA01021DD0C5F304
:1004A0000A570246C5F31303C1F31300C1F30A56FA
:1004B00040F4801543F48013A7EB0608101BD646C2
:1004C00008F2FD3873EB050002D308F1010801E0E2
:1004D00092185B41B8F1000F03DA00200146BDE835
:1004E000F08D00204FF48011064684460EE0171B65
:1004F00073EB050705D3121B63EB050306434CEAB8
:10050000010C49084FEA300092185B4150EA01079C
:10051000EDD152EA030012D082EA040083EA050119
:10052000084305D0101BAB4106D20122002306E090
:1005300000224FF0004302E06FF0010253101AEB6B
:1005400006004CEB085110EB0A0041EB0B01BDE833
:10055000F04D00F0EFB80EB5C10F80EAE07008442E
:10056000CA07002140F233438DE80E000A460B46CD
:1005700000F0EFF803B000BD00F0004230F00040A2
:100580000AD0C10D01F56071C0F3160042EA0151B5
:10059000C208400711437047002001467047000021
:1005A00030B5041E71F1000404DB4FF000444042FA
:1005B00064EB0101141E73F1000405DB1C464FF0CF
:1005C0000043524263EB04038B4208BF824230BDBA
:1005D00030B5041E71F1000404DB4FF000444042CA
:1005E00064EB0101141E73F1000405DB1C464FF09F
:1005F0000043524263EB0403994208BF904230BD6E
:1006000001F0004330B421F0004150EA010206D06D
:100610000A0DA2F56072C1F31301002A02DC30BC9E
:1006200000207047440F44EAC104C100E01830BC08
:1006300000EBC25000F047B830B50B460146002031
:100640002022012409E021FA02F59D4205D303FA94
:1006500002F5491B04FA02F52844151EA2F1010215
:10066000F1DC30BD202A04DB203A00FA02F1002040
:1006700070479140C2F1200320FA03F319439040E0
:100680007047202A04DB203A21FA02F0002170474B
:1006900021FA02F3D040C2F12002914008431946EA
:1006A0007047202A06DBCB17203A41FA02F043EAD2
:1006B000E07306E041FA02F3D040C2F1200291401B
:1006C0000843194670470029A8BF7047401C4900DD
:1006D00008BF20F00100704710B4B0FA80FC00FAA7
:1006E0000CF050EA010404BF10BC704749B1CCF1D2
:1006F000200421FA04F411FA0CF118BF012121435E
:100700000843A3EB0C01CB1D4FEA00614FEA102018
:1007100042BF002010BC704700EBC35010440029BA
:10072000A4BF10BC7047401C490008BF20F0010066
:1007300010BC704710B5141E73F1000408DA401C99
:1007400041F1000192185B411A4301D120F00100F0
:1007500010BD2DE9F04D92469B4611B1B1FA81F2E0
:1007600002E0B0FA80F220329046FFF77BFF0446A9
:100770000F4640EA0A0041EA0B0153465A46084335
:1007800013D0114653EA010019D0C8F14002504677
:10079000FFF777FF05460E46504659464246FFF79B
:1007A00061FF084305D0012004E020463946BDE83A
:1007B000F08D0020054346EAE0762C4337430A9843
:1007C0006305E40AA0EB08000022FD0A44EA47544E
:1007D0000A3002D500200146E9E7010510196941F8
:1007E000DDE9084500196941BDE8F04DA2E7C1F314
:1007F0000A52C1F3130140F2FF3341F480119A42CF
:1008000002DA00200146704740F233439A42A2F2D6
:10081000334202DC5242FFF734BFFFF723BF000030
:10082000064C074D06E0E06840F0010394E807003D
:1008300098471034AC42F6D3FFF7AAFC304A0008C0
:10084000504A000870B58C1810F8015B15F00703CA
:1008500001D110F8013B2A1106D110F8012B03E059
:1008600010F8016B01F8016B5B1EF9D12B0705D461
:100870000023521E0DD401F8013BFAE710F8013BAA
:10088000CB1A921C03E013F8015B01F8015B521EC6
:10089000F9D5A142D8D3002070BD10B50146806BB8
:1008A000026C12F0500F05D0026CD20626D500F073
:1008B000D3F910BD016C41F40071016401688A68CC
:1008C00012F0405F17D1027EAAB9CA6A12F4700F03
:1008D00002D08A6852050ED44A6822F020024A608B
:1008E000016C21F480710164016CC90403D4016CB2
:1008F00041F00101016400F0ADF910BD806BC26CE4
:10090000BDE810400846104710B5806B40210164D7
:10091000416C41F00401416400F09EF910BD10B536
:10092000806B00F098F910BD464910B54A6822F472
:1009300040324A604A6843681A434A6001684A681C
:1009400022F480724A6001684A68036942EA03221D
:100950004A6001684A6822F040724A6001684A6849
:1009600083681A434A6001688A6822F400628A60D8
:1009700001688A68C3681A438A60816A6FF070628E
:10098000D14201688A6822F070628A6001688A68D0
:100990000CD0836A1A438A6001688A6822F0405248
:1009A0008A6001688A68C36A1A4301E022F04052F3
:1009B0008A6001688A6822F002028A6001688A6897
:1009C000037E42EA43028A6090F820100029016801
:1009D0004A680FD042F400624A6001684A6822F413
:1009E00060424A6001684A68174C436A04EB43332B
:1009F0001A4301E022F400624A600168CA6A22F4E4
:100A00007002CA620168CA6A838B104C04EB0353FC
:100A10001A43CA6201688A6822F400728A60016817
:100A20008A6890F8303042EA43228A6001688A6816
:100A300022F480628A6001688A68406942EA802004
:100A4000886010BD0023014000E0FFFF0000F0FFC0
:100A5000FEE70000014800F029BA000064470020CA
:100A600001681823CAB2103AB2FBF3F2054B6FF3D8
:100A70000901032A9B5CC36500D9091D81650846ED
:100A8000704700000E4A000810B5014600208B692F
:100A90008A6A4FF0C07453B1B3F5005F15D072B1DC
:100AA000012A0CD0022A0AD0032A09D104E01AB183
:100AB000012A06D0022A03D1C96AC90100D5012042
:100AC00010BDC96AA142FAD010BD002AF7D0012A90
:100AD000F2D0022AF3D0032AF3D010BD30B5046857
:100AE000256825F480252560046863608368402BB1
:100AF000036803D099600068C26030BD9A600068E6
:100B0000C16030BD7047704778B50024009490F8FC
:100B10003C20012A19D0012280F83C200A680725D0
:100B20000368092A13D9DE680A3A02EB42029540AB
:100B3000AE43DE600A788B680A3A02EB42029340C9
:100B40000268D5682B43D36010E0022078BD1E698F
:100B500002EB42029540AE431E610A788B6802EBBD
:100B600042029340026815692B4313614A681F25AE
:100B7000072A13D203685E6B521E02EB8202954075
:100B8000AE435E630A8893B20A79521E02EB820278
:100B900093400268556B2B43536327E003680D2A8B
:100BA00012D21E6BD21F02EB82029540AE431E632F
:100BB0000A8893B20A79D21F02EB8202934002683C
:100BC000156B2B43136311E0DE6A0D3A02EB8202D0
:100BD0009540AE43DE620A8893B20A790D3A02EB81
:100BE000820293400268D56A2B43D362164B056894
:100BF000144A9D4206D10D68122D03D1556845F463
:100C00008005556005689D4218D10B68102B01D0F6
:100C1000112B13D1536843F4000353600968102962
:100C20000CD10A490A4A0968B1FBF2F101EB8101D2
:100C3000490000E0491E00910029FBD180F83C40AA
:100C4000002078BD002301400020014074010020F5
:100C500040420F0070477047704770B504004FF076
:100C6000000603D0206C002510B107E0012070BD04
:100C7000204600F01DF8656484F83C50206CC006E6
:100C800010D4206C20F4885040F0020020642046EC
:100C9000FFF74AFE6564206C20F0020040F001007E
:100CA000206400E0012684F83C50304670BD00000E
:100CB00070B586B0064614216846FFF7B9FA204998
:100CC0003068884239D11F480025016841F480719D
:100CD0000160006800F4807005901A4814380168BB
:100CE00041F0010101600068694600F001000590D3
:100CF0001F2000900320CDE90105134800F05EFAA3
:100D0000134C1248C4E900050015A560C4E903505E
:100D1000400060618000A0614011C4E90705042023
:100D200060620120C4E90A052046256300F08EF9BF
:100D300008B1FFF7E8FEB463A66306B070BD00001B
:100D4000002001404438024000000240106402408C
:100D500064470020F8B500230446009390F83C0057
:100D6000012807D0012084F83C0020688568ED0741
:100D700002D011E00220F8BD856845F001058560CC
:100D80003848394D0068B0FBF5F000EB400000E05A
:100D9000401E00900028FBD120688568ED075ED0DA
:100DA000256C40F20166B54345F4807525644068C2
:100DB000400505D5206C20F4005040F4805020649C
:100DC000206CC00404D5606C20F00600606400E074
:100DD000636484F83C30A36B2548244DD863A36B2F
:100DE00024481864A36B2448D86423686FF0220059
:100DF00018602068436843F080634360206883681C
:100E000043F480738360134620680A46A66B00F1A2
:100E10004C01304600F084F968681849C006206823
:100E200006D088421BD1816811F0405F13D016E0D4
:100E30008842F8D0124A904203D1D1F80423D20656
:100E4000F1D0104A90420AD1D1F8041301F01F01E9
:100E50001029E8D303E0816841F0804181600020DF
:100E6000F8BD00007401002040420F000023014043
:100E70009B0800081F09000809090008002001401C
:100E8000002101400022014090F83510022903D0D2
:100E90008021416501207047052180F835100068E8
:100EA000016821F001010160002070472DE9F8433D
:100EB00004464FF00009CDF8009063484FF41651F6
:100EC000A56D0068B0FBF1F72E6894F85C2008214E
:100ED00001FA02F030420FD02068026852070BD5A9
:100EE000026822F00402026094F85C008140A9606C
:100EF000606D40F00100606594F85C104FF00108EF
:100F000008FA01F0304208D021684969090604D581
:100F1000A860606D40F00200606594F85C100420E9
:100F20008840304208D021680968890704D5A86044
:100F3000606D40F00400606594F85C1010208840FB
:100F4000304218D021680968090714D5A8602068C4
:100F50000168490304D50068000308D5A16C07E0C7
:100F60000168C90503D4016821F008010160216C02
:100F700009B12046884794F85C1020208840304210
:100F800031D021680968C9062DD5A86094F83500CC
:100F900005282068016806D0490347D5006800038A
:100FA0001DD4616C1CE021F01601016020684169CC
:100FB00021F080014161206C08B9A06C20B120684B
:100FC000016821F00801016094F85C103F2088401E
:100FD000A86084F8349084F83580216D1FE0E16BBF
:100FE00009B120468847606D00282BD0606DC0078E
:100FF00014D0052084F835002068016821F0010133
:1010000001600098401C0090B84203D82068006836
:10101000C007F6D184F8349084F83580E16C00295B
:1010200010D001B02046BDE8F04308470168C9056B
:10103000D5D4016821F01001016084F8349084F85F
:101040003580CCE7BDE8F883740100202DE9F0413C
:10105000044600F099F905465CB1002684F8346036
:10106000022084F835002068016821F00101016048
:101070000DE00120BDE8F08100F086F9401B052855
:1010800005D920206065032084F83500F2E7206848
:101090000068C007F0D121680A6820480240D4E9FE
:1010A00001031843D4E903352B43184363691843FC
:1010B000A3691843E3691843236A18431043626A1B
:1010C000042A03D1D4E90B231A4310430860206893
:1010D0004069656A20F0070128460D43012704286E
:1010E0000CD1A06A0543E06A40B12046FFF7CCFC72
:1010F00020B14020606584F83570BAE7206845610A
:101100002046FFF7ADFC94F85C203F2191408160C0
:10111000666584F835700020ACE700003F8010F071
:101120002DE9F0410446866D90F834000025012831
:101130000DD0012084F8340094F835700020012F80
:1011400007D084F8340002252846BDE8F08102204B
:10115000FBE7022784F8357060652046FFF7BEFC88
:1011600094F85C103F208840B0602068016841F02E
:10117000160101602068416941F080014161206CE5
:1011800020B12068016841F0080101602068016811
:1011900041F001010160D7E770B5044600F0F4F8B2
:1011A0000546601C02D004480078044400F0ECF8C6
:1011B000401BA042FAD370BD680100202DE9F84F12
:1011C000DFF88C91002209F1040A0AF1040B4FF0B8
:1011D0000F080BF1040E01260B6896403340B34212
:1011E00071D14C68022C01D0122C11D1D40800EB23
:1011F00084073D6A5407E40E08FA04FC25EA0C054E
:10120000D1F810C00CFA04FC4CEA050CC7F820C059
:1012100007685400032591F804C0A5400CF0030CA6
:10122000AF430CFA04FC4CEA070CC0F800C04F684E
:10123000012F05D0022F03D0112F01D0122F11D171
:101240008768D1F80CC0AF430CFA04FC4CEA070CD9
:10125000C0F808C04768B7430E79C6F30016964039
:101260003E434660C668AE438D68A5403543C560C1
:101270004C68E40065D5374C256845F48045256009
:10128000246822F0030504F480440094324C2E19A3
:10129000D6F808789407250F08FA05F4A7432F4CD1
:1012A000A04201D1002424E02D4CA04201D1012410
:1012B0001FE02C4CA04201D102241AE02A4CA0428B
:1012C00002D1032415E03CE0284CA04201D10424C3
:1012D0000FE0274CA04201D105240AE0254CA04292
:1012E00001D1062405E0244CA04201D1072400E0EE
:1012F0000824AC403C43C6F80848D9F800404D46A5
:101300004E689C43F60300D51C432C60DAF800407D
:1013100055464E689C43B60300D51C432C60DBF851
:1013200000405D464E689C43F60200D51C432C608D
:10133000DEF8004075464E689C43B60200D51C435B
:101340002C60521C102AFFF446AFBDE8F88F000055
:10135000003C01404438024000300140000002409F
:101360000004024000080240000C0240001002404D
:101370000014024000180240001C02400AB18161C2
:1013800070470904FBE700000148806870470000CF
:10139000680100200248816802781144816070472A
:1013A000680100200B4810B5016841F4007101602C
:1013B000016841F480610160016841F4807101605D
:1013C000032000F06FF8002000F006F800F024F889
:1013D000002010BD003C024070B50D4D04464FF496
:1013E0007A712878B1FBF0F00A490968B1FBF0F096
:1013F00000F01CFC48B9102C07D200222146501ED8
:1014000000F030F800206C6070BD012070BD00005D
:1014100068010020740100200A4808B5016841F401
:1014200080410160006800F4804000900548001F82
:10143000016841F080510160006800F08050009028
:1014400008BD000044380240002809DB00F01F02FC
:10145000012191404009800000F1E020C0F8001116
:1014600070470000F0B40E4B1B68C3F30223C3F1B6
:101470000704042C00D904241D1D072D01D20023CC
:1014800000E0DB1E012606FA04F56D1E0D409D40AE
:101490009E40761E164045EA0601F0BC02F028BBCD
:1014A0000CED00E0064A00F0070110684FF6FF035C
:1014B000184040EA012003490843106070470000CB
:1014C0000CED00E00000FA052DE9F8430446006841
:1014D0004FF00109C1074FF0000501D1400726D5A3
:1014E000DFF80C81C8F86850FFF74EFF0646414F01
:1014F00004E0FFF749FF801B022857D83868000135
:10150000F7D46068217A800140EA0170394984315A
:101510000860C8F86890FFF737FF064604E0FFF759
:1015200033FF801B022841D838680001F7D52078A6
:10153000800752D52F484030016841F0805101604A
:1015400000682D4F00F080500090386840F48070A3
:101550003860FFF719FF064604E0FFF715FF801B10
:10156000022823D83868C005F7D5224E7036306877
:1015700010F4407020D0A18901F4407181421BD049
:1015800030681E4920F44070C1F800900D60306052
:101590003068C00710D0FFF7F7FE054641F28837E4
:1015A00007E0FFF7F1FE401BB84202D90320BDE877
:1015B000F88330688007F4D5E0680E49C0F3012253
:1015C0000831032A0BD0086820F4F810086030684E
:1015D000A189C1F30B01084330600020E7E70A68E6
:1015E000074B22F4F812184002430A60EFE70000AC
:1015F000000047420038024000700040400E474261
:10160000FFFCFF0F2DE9F0470D46040065D0DFF821
:101610001491D9F80000EFB200F00F00A84207D2F1
:1016200089F80070D9F8000000F00F00A84254D1EA
:1016300020683D4E810712D5400703D5306840F43D
:10164000E05030602078000703D5306840F46040F7
:1016500030603068A16820F0F000084330602078E6
:10166000C0072DD0304960680839012812D00228FF
:1016700013D0032811D00968890700292DDA3168B1
:1016800021F0030101433160FFF77EFE804641F205
:10169000883A0EE009688903EFE709688901ECE7F9
:1016A000FFF772FEA0EB0801514502D90320BDE807
:1016B000F0873068616800F00C00B0EB810FEFD16B
:1016C000D9F80010484601F00F01A94207D9077068
:1016D000006800F00F00A84201D00120E7E7207861
:1016E000400705D53068E16820F4E05008433060D9
:1016F0002078000706D53068216920F4604040EA70
:10170000C100306000F036F83168084AC1F30311B7
:10171000515CC840064908600020FFF75DFE0020CC
:10172000C5E70000003C024008380240164A0008A5
:10173000740100200448054900680968044AC1F39F
:101740008221515CC8407047740100200838024073
:10175000264A00080448054900680968044AC1F39C
:101760004231515CC8407047740100200838024083
:10177000264A0008154810B5006810F00C011448FE
:1017800013D0431004290FD008290ED10F4C241F69
:10179000216801F03F022168490207D52068C0F3A3
:1017A0008810A0FB030106E0184610BD2168C1F3B4
:1017B0008811A1FB00010023FEF702FD2168C1F39F
:1017C0000141491C4900B0FBF1F010BD083802404E
:1017D0000024F4002DE9F84F040073D02078BD4DAB
:1017E000C00748D0BB4808300168C1F38101012916
:1017F00008D00068C0F3810002280AD1281D0068C3
:10180000400206D52868800335D560680028E4D0FA
:1018100031E06068B0F5803F10D0B0F5A02F2868A7
:1018200010D020F480302860286820F480202860C0
:101830006068A0B1FFF7A8FD06460CE0286840F4F8
:101840008030F4E740F480202860F7E7FFF79CFD44
:10185000801B642872D828688003F7D50BE0FFF757
:1018600093FD064604E0FFF78FFD801B6428F1D846
:1018700028688003F7D42078DFF85C9280074FF067
:10188000000A3ED593480830016811F00C0F09D0CA
:101890000068C0F3810002280BD18E48001D00684B
:1018A000400206D42868800715D5E068012809D1D0
:1018B00011E0E068B8B10120C9F80000FFF764FD4D
:1018C000064605E003E1FFF75FFD801B0228C1D853
:1018D00028688007F7D52868216920F0F80040EAD9
:1018E000C10028600DE0C9F800A0FFF74DFD0646D5
:1018F00004E0FFF749FD801B02281FD828688007F5
:10190000F7D42078000722D5724F74496069743784
:1019100070B101200860FFF737FD064604E0FFF7CD
:1019200033FD801B022809D838688007F7D50EE000
:10193000C1F800A0FFF728FD064605E081E0FFF7AB
:1019400023FD801B02287CD838688007F7D42078D4
:10195000400769D5DFF87CB14FF000080BF1400B70
:10196000DBF80000C0000CD4DBF8001041F080511F
:10197000CBF80010DBF800004FF0010800F08050B9
:101980000090574F3868C0050FD4386840F4807015
:101990003860FFF7F9FC064604E0FFF7F5FC801B12
:1019A00002284ED83868C005F7D54A4FA06870376E
:1019B00001280FD00528386810D020F001003860C9
:1019C000386820F004003860A068B0B1FFF7DCFC94
:1019D00006460EE0386840F00100F4E740F00400ED
:1019E0003860F7E7FFF7D0FC811B41F28830814275
:1019F00065D838688007F5D50DE0FFF7C5FC0646C9
:101A000006E0FFF7C1FC811B41F28830814256D8C5
:101A100038688007F5D4B8F1000F05D0DBF8001066
:101A200021F08051CBF80010A069C8B329490831D2
:101A30000968C1F38101022949D00228504607D024
:101A400000E03CE0C9F86000FFF79EFC044639E086
:101A50004F46C9F86000FFF797FC064604E0FFF721
:101A600093FC801B02282AD828688001F7D4D4E987
:101A700007010843A16A1B4A490802EB0141626A57
:101A800041EA8211084394F82C1040EA01611148A0
:101A9000001D016001203866FFF776FC044605E072
:101AA00013E0FFF771FC001B022808D828688001AA
:101AB000F7D50AE0FFF768FC001B022802D90320D3
:101AC000BDE8F88F28688001F4D40020F8E70120F1
:101AD000F6E700000038024000004742800E47420F
:101AE000007000400000FFFF10B5027F012A1FD0E8
:101AF00001230377022242770468CA2262620468E3
:101B0000532262620268946824F40024946002689C
:101B100094680C43946001688A6842F400028A6009
:101B20000268FF215162437700210177084610BD0A
:101B3000022010BD70B5040002D0607F10B106E035
:101B4000012070BD00202077204600F049F80220D7
:101B500060772168CA204862216853204862204685
:101B600001F0AFFBFF25042618BB206881681B4AE3
:101B7000114081602068816862681143D4E90423C0
:101B80001A43114381602168E06808612068016997
:101B9000228941EA024101612068C16821F0800187
:101BA000C16020688068800607D4204600F024F8D1
:101BB00018B1206845626677C2E72068016C21F49D
:101BC000802101642068016CA269114301642068CE
:101BD000456201206077002070BD0000BFFF8FFFCD
:101BE00000680349884202D1024901200860704719
:101BF000002800403C0E474270B505460068C168A9
:101C000021F0A001C160FFF7BFFB04464FF47A76D4
:101C100006E0FFF7B9FB001BB04201D9032070BDFD
:101C20002868C0688006F4D5002070BD10B5401E3D
:101C3000B0F1807F01D3012010BD4FF0E02460613E
:101C40000F21601701F054FF0020A06107202061E0
:101C5000002010BD7047704770B590F83C20012AF5
:101C600019D0012500F83C5F0222427050F83C2C4C
:101C70005368946823F070060B684968334324F076
:101C800080042143536050F83C2C91604570002142
:101C90000170084670BD022070BD10B5040003D06D
:101CA00094F83D0010B107E0012010BD002084F839
:101CB0003C00204600F00CF8022084F83D00211D75
:101CC000206801F0A7FB012084F83D00002010BD32
:101CD00008B500681E4988420FD11E48016841F4CA
:101CE000803101600068002200F4803000901146CD
:101CF0001820FFF7B7FB182024E01649164A091FE1
:101D000090420ED1086840F0800008600868002208
:101D100000F08000009011462C20FFF7A3FB2C2040
:101D200010E00E4A904211D1086840F480700860BB
:101D30000868002200F48070009011462D20FFF703
:101D400091FB2D20BDE80840FFF77EBB08BD0000D9
:101D50000040014044380240001C00400020004088
:101D60000168CA6842F00102CA600068816801F037
:101D70000701062903D0016841F00101016000203C
:101D8000704770B5044690F83C00012817D0012533
:101D900084F83C50022084F83D002068826822F0DC
:101DA000770222F47F4282600868502830D00DDC30
:101DB00020284DD005DC98B310283BD148E0022004
:101DC00070BD302844D0402834D139E0602828D074
:101DD000702806D0B0F5805F2CD0B0F5005F29D117
:101DE0000AE0CB68D1E90121206801F084FB20687A
:101DF000816841F0770109E0CB68D1E901212068D1
:101E000001F079FB2068816841F48041816011E034
:101E1000CA684968206801F043FC5021206807E047
:101E200016E0CA684968206801F04BFC6021206810
:101E300001F06BFB84F83D50002084F83C0070BD3D
:101E4000CA684968206801F02BFC40212068EFE750
:101E5000226801461046EBE7704770B504460068FB
:101E600001694FF00005C943890715D4C168C9430A
:101E7000890711D4E91E016101202077206880695B
:101E80008007204602D0FFF7E7FF04E000F0C2F829
:101E9000204600F057F9257720680169C9434907B2
:101EA00017D4C168C943490713D46FF00401016115
:101EB000022020772068806910F4407F204602D0FD
:101EC000FFF7CAFF04E000F0A5F8204600F03AF959
:101ED000257720680169C943090716D4C168C94339
:101EE000090712D46FF008010161042020772068EF
:101EF000C0698007204602D0FFF7AEFF04E000F083
:101F000089F8204600F01EF9257720680169C94349
:101F1000C90617D4C168C943C90613D46FF01001AC
:101F20000161082020772068C06910F4407F2046B6
:101F300002D0FFF791FF04E000F06CF8204600F0BB
:101F400001F9257720680169C943C90708D1C1682B
:101F5000C943C90704D1891E0161204600F016F962
:101F600020680169C943090609D4C168C943090643
:101F700005D46FF0800101612046FFF76BFE2068F9
:101F80000169C943490609D4C168C943490605D452
:101F90006FF040010161204600F02CFF20680169CC
:101FA000C94389060BD4C168C943890607D46FF0B9
:101FB000200101612046BDE87040FFF74CBE70BDB6
:101FC00010B586B0044614216846FEF731F90E4973
:101FD0002068884216D10D480021026842F00802AC
:101FE0000260006800F0080005904FF480500090F7
:101FF0000220CDE901010321CDE90310694604481F
:10200000FFF7DCF806B010BD000800403038024091
:10201000000C0240704770B5044690F83C000D4635
:1020200001280DD0012684F83C60022084F83D0090
:1020300042B1042A18D0082A2AD00C2A4DD139E0FE
:10204000022070BD206801F069FA2068816941F0C2
:10205000080181612068816921F0040181612068A3
:1020600081692A69114311E0206801F087FA20682C
:10207000816941F4006181612068816921F4806196
:102080008161206881692A6941EA0221816124E035
:10209000206801F0A9FA2068C16941F00801C16116
:1020A0002068C16921F00401C1612068C1692A6901
:1020B000114311E0206801F0CBFA2068C16941F4B6
:1020C0000061C1612068C16921F48061C16120683B
:1020D000C1692A6941EA0221C16184F83D6000209A
:1020E00084F83C0070BD10B5040003D094F83D00A6
:1020F00010B107E0012010BD002084F83C0020460C
:1021000000F00CF8022084F83D00211D206801F049
:1021100081F9012084F83D00002010BD08B5006859
:102120000649884208D10648016841F0040101606F
:10213000006800F00400009008BD000000080040A6
:10214000403802407047000010B504460068012284
:1021500001F0C4F90B482168814202D00A4881424B
:1021600003D1486C40F4004048642068816801F065
:102170000701062903D0016841F001010160002038
:1021800010BD000000000140000401402DE9F041B5
:1021900080462DED0E8B0068FD49FE4C8842A4F16F
:1021A00080067DD1FC490522A1F5F470FEF7D2FD31
:1021B000F94F388900EE100A07F1D400B8EE400A52
:1021C00086ED170A756896ED161A00EB8501D1EDBC
:1021D000000A81ED000A71EE600A70EE200AC6ED79
:1021E000160A9FEDEE8A80EE880A86ED150A10EE3B
:1021F000100AFEF7C1F99FEDEA1B53EC112BFEF715
:10220000C9F89FEDE91B53EC112BFEF7BDF8FEF763
:10221000F7F96060388800EE100AE548B8EE400A29
:1022200000EB850186ED1D0AD1ED000A96ED1C1A22
:1022300081ED000A71EE600A70EE200AC6ED1C0AFC
:1022400080EE880A86ED1B0A10EE100AFEF794F95C
:102250009FEDD81B53EC112BFEF79CF89FEDD71B7D
:1022600053EC112BFEF790F8FEF7CAF9E060B8883E
:1022700000EE100AD348B8EE400A00EB850184ED69
:10228000000AD1ED000A96ED1F1A81ED000A71EEE9
:10229000600A70EE200AC6ED1F0A80EE880A00E090
:1022A00048E086ED1E0A10EE100AFEF765F99FED74
:1022B000C61B53EC112BFEF76DF89FEDC51B53ECBD
:1022C000112BFEF761F8FEF79BF9A060F88800EE8D
:1022D000100AC148B8EE400A00EB850186ED1A0AE3
:1022E000D1ED000A96ED191A81ED000A71EE600A2F
:1022F00070EE200AC6ED190A80EE880A86ED180AEB
:1023000010EE100AFEF738F99FEDB41B53EC112BB9
:10231000FEF740F89FEDB31B53EC112BFEF734F89A
:10232000FEF76EF96D1C20617560B5F57A7F01DBF3
:1023300000207060AD49D8F80000884273D1F06C7D
:10234000944DC04305F18005F064286502D0401C1F
:102350000DD018E094ED020A85ED0E0AD4ED010AC5
:10236000C5ED0D0A20EE200A85ED0F0A0BE094ED75
:10237000020A86ED100AD4ED010AC5ED0B0A20EE23
:10238000200A85ED0C0A95ED0F0A95ED0C8A30EECA
:10239000480A85ED120A95ED0D1AD5ED0B0A31EEBE
:1023A000601A85ED131AD4ED031A94ED042A61EE38
:1023B000821AC5ED101A85ED0F8AC5ED0D0AC0EE23
:1023C000010A10EE900AFEF7D7F841EC190B85EDE3
:1023D000169BB06CFEF7D0F853EC192BFDF7D7FF26
:1023E000C5E9180151EC190BFEF70AF9B06418EEB3
:1023F000100A7F49F7EE008A9FED7E8A88427DDAD7
:10240000306AFEF7B9F853EC192BFEF7E1F80BD858
:10241000C4ED078A84ED0B8A84ED0A8A84ED098A6B
:1024200084ED088A75E1FDE3306AFEF7A5F895EDC5
:10243000161B53EC112BFEF7B3F842D8706AFEF767
:102440009BF895ED161B53EC112BFEF7C1F838D80D
:1024500096ED099A96ED08BA79EE4BBA1BEE900A02
:10246000FEF78AF841EC1A0B19EE100AFEF784F811
:1024700095ED169B53EC192BFDF786FF53EC1A2BA9
:10248000FDF7FAFFFEF7BCF8E0611BEE900AFEF7DD
:1024900073F841EC1A0B1BEE100AFEF76DF853ECC3
:1024A000192BFDF774FF53EC1A2BFDF7E5FFFEF730
:1024B000A7F8206284ED0B8A84ED0A8A84ED098AEC
:1024C00027E1706AFEF758F895ED161B53EC112BB7
:1024D000FEF766F842D8B06AFEF74EF895ED161B87
:1024E00053EC112BFEF774F838D896ED0A9A96ED56
:1024F00009BA79EE4BBA1BEE900A00E0FEE3FEF754
:102500003BF841EC1A0B19EE100AFEF735F895ED81
:10251000169B53EC192BFDF737FF53EC1A2BFDF7E5
:10252000ABFFFEF76DF820621BEE900AFEF724F871
:1025300041EC1A0B1BEE100AFEF71EF853EC192B98
:10254000FDF725FF53EC1A2BFDF796FFFEF758F821
:10255000606284ED0B8A84ED0A8AD8E0B06AFEF7E7
:102560000BF895ED161B53EC112BFEF719F875D8E7
:10257000F06AFEF701F895ED161B53EC112BFEF7F0
:1025800027F86BD896ED0B9A96ED0ABA34E0000066
:1025900000200040800000206003002000007A44FA
:1025A000158C4AEA0434713FE17A14AE47E1CA3F20
:1025B0007423002092CB7F48BF7D6D3F7FD93D794A
:1025C00058A8C53F143300209A9999999999893F41
:1025D000A4703D0AD7633940D4130020C58F3177EA
:1025E0002D218F3F9A99999999993E400040014039
:1025F000000048430000000079EE4BBA1BEE900A41
:10260000FDF7BAFF41EC1A0B19EE100AFDF7B4FF03
:1026100095ED169B53EC192BFDF7B6FE53EC1A2BD8
:10262000FDF72AFFFDF7ECFF60621BEE900AFDF755
:10263000A3FF41EC1A0B1BEE100AFDF79DFF53ECB4
:10264000192BFDF7A4FE53EC1A2BFDF715FFFDF730
:10265000D7FFA06284ED0B8A57E0FFE7F06AFDF731
:102660008BFF95ED161B53EC112BFDF799FF3CD812
:10267000306BFDF781FF95ED161B53EC112BFDF729
:10268000A7FF32D896ED0C9A96ED0BBA79EE4BBABD
:102690001BEE900AFDF770FF41EC1A0B19EE100AC1
:1026A000FDF76AFF95ED169B53EC192BFDF76CFEB9
:1026B00053EC1A2BFDF7E0FEFDF7A2FFA0621BEE24
:1026C000900AFDF759FF41EC1A0B1BEE100AFDF7BB
:1026D00053FF53EC192BFDF75AFE53EC1A2BFDF761
:1026E000CBFEFDF78DFFE0620DE0306BFDF744FFA0
:1026F00095ED161B53EC112BFDF752FF09D8C4EDD5
:102700000B8A84ED0A8A84ED098A84ED088A84EDB7
:10271000078A706BFDF730FF95ED181B53EC112BFA
:10272000FDF756FF0AD8C4ED0C8A84ED108A84EDBB
:102730000F8A84ED0E8A84ED0D8A41E1706BFDF7FE
:102740001BFF95ED181B53EC112BFDF729FF42D809
:10275000B06BFDF711FF95ED181B53EC112BFDF736
:1027600037FF38D896ED0E9AD6ED0D8A39EE68BA55
:102770001BEE100AFDF700FF41EC1A0B19EE100AD0
:10278000FDF7FAFE95ED189B53EC192BFDF7FCFDB8
:1027900053EC1A2BFDF770FEFDF732FF20631BEEA2
:1027A000100AFDF7E9FE41EC1A0B18EE900AFDF74E
:1027B000E3FE53EC192BFDF7EAFD53EC1A2BFDF762
:1027C0005BFEFDF71DFF606384ED108A84ED0F8AC8
:1027D00084ED0E8AF4E0B06BFDF7CEFE95ED181B8C
:1027E00053EC112BFDF7DCFE40D8F06BFDF7C4FE77
:1027F00095ED181B53EC112BFDF7EAFE36D896ED3C
:102800000F9AD6ED0E8A39EE68BA1BEE100AFDF764
:10281000B3FE41EC1A0B19EE100AFDF7ADFE95ED73
:10282000189B53EC192BFDF7AFFD53EC1A2BFDF75A
:1028300023FEFDF7E5FE60631BEE100AFDF79CFE2C
:1028400041EC1A0B18EE900AFDF796FE53EC192B8B
:10285000FDF79DFD53EC1A2BFDF70EFEFDF7D0FEA4
:10286000A06384ED108A84ED0C8AA7E0F06BFDF77D
:1028700083FE95ED181B53EC112BFDF791FE3ED80E
:10288000B068FDF768FE95ED181B53EC112BFDF7B2
:102890009FFE34D896ED109AD6ED0F8A39EE68BABD
:1028A0001BEE100AFDF768FE41EC1A0B19EE100A38
:1028B000FDF762FE95ED189B53EC192BFDF764FDB7
:1028C00053EC1A2BFDF7D8FDFDF79AFEA0631BEE23
:1028D000100AFDF751FE41EC1A0B18EE900AFDF7B5
:1028E0004BFE53EC192BFDF752FD53EC1A2BFDF761
:1028F000C3FDFDF785FEE06384ED108A47E0B06814
:10290000FDF729FE95ED181B53EC112BFDF748FE42
:1029100042D8706CFDF730FE95ED181B53EC112B6F
:10292000FDF756FE38D896ED119AD6ED108A39EE9D
:1029300068BA1BEE100AFDF71FFE41EC1A0B19EEE8
:10294000100AFDF719FE95ED189B53EC192BFDF7B6
:102950001BFD53EC1A2BFDF78FFDFDF751FEE063D5
:102960001BEE100AFDF708FE41EC1A0B18EE900A58
:10297000FDF702FE53EC192BFDF709FD53EC1A2B62
:10298000FDF77AFDFDF73CFE206484ED0E8A84EDB0
:102990000D8A84ED0C8A13E0706CFDF7EDFD95ED6A
:1029A000181B53EC112BFDF7FBFD09D8C4ED108A61
:1029B00084ED0C8A84ED0D8A84ED0E8A84ED0F8AF5
:1029C00094ED103A84ED113AD4ED072AF4EEC32ABF
:1029D000F1EE10FA01DDC4ED112A94ED0C0A84ED3C
:1029E000120A94ED082AB4EEC32AF1EE10FA01DDC2
:1029F00084ED122A84ED133AD4ED091AF4EEC31AC9
:102A0000F1EE10FA01DDC4ED131A84ED143A94EDE1
:102A10000A1AB4EEC31AF1EE10FA01DD84ED141AAD
:102A200084ED153AD4ED0B0AF4EEC30AF1EE10FA78
:102A300001DDC4ED150A94ED0F3A84ED163AF4EE7B
:102A4000C32AF1EE10FA01DDC4ED162AB4EEC32A52
:102A500084ED173AF1EE10FA01DD84ED172AF4EE59
:102A6000C31A84ED183AF1EE10FA01DDC4ED181A1C
:102A7000B4EEC31A84ED193AF1EE10FA01DD84EDDB
:102A8000191AF4EEC30A84ED1A3AF1EE10FA01DDD8
:102A9000C4ED1A0A94ED0E3A84ED1B3AF4EEC32A03
:102AA000F1EE10FA01DDC4ED1B2AB4EEC32A84ED69
:102AB0001C3AF1EE10FA01DD84ED1C2AF4EEC31A83
:102AC00084ED1D3AF1EE10FA01DDC4ED1D1AB4EEED
:102AD000C31A84ED1E3AF1EE10FA01DD84ED1E1AE0
:102AE000F4EEC30A84ED1F3AF1EE10FA01DDC4EDF5
:102AF0001F0A94ED0D3A85ED003AF4EEC32AF1EE8B
:102B000010FA01DDC5ED002AB4EEC32A85ED013AC5
:102B1000F1EE10FA01DD85ED012AF4EEC31A85ED20
:102B2000023AF1EE10FA01DDC5ED021AB4EEC31A55
:102B300085ED033AF1EE10FA01DD85ED031AF4EEAE
:102B4000C30A85ED043AF1EE10FA01DDC5ED040A81
:102B5000F4EEC02A85ED050AF1EE10FA01DDC5EDAF
:102B6000052AB4EEC02A85ED060AF1EE10FA01DD61
:102B700085ED062AF4EEC01A85ED070AF1EE10FA8B
:102B800001DDC5ED071AB4EEC01A85ED080AF1EEB5
:102B900010FA01DD85ED081AF4EEC00A85ED090A88
:102BA000F1EE10FA01DDC5ED090AD4ED11CAD6ED3A
:102BB000071A94ED12DA96ED061A6CEEA1DA94ED8E
:102BC00013CAD6ED040AD4ED14BA4DEE01DA96ED2F
:102BD000050A94ED15BAD4ED16AA94ED17AAD4ED12
:102BE000189A4CEE20DA94ED199AD4ED1A8AD4EDA5
:102BF0001B7A94ED1C7AD4ED1D6A4BEE80DA4BEE15
:102C000000DA4AEEA1DA4AEE01DA49EE80DA49EE5C
:102C100000DA48EE80DA47EEA1DA47EE01DA46EE56
:102C200080DA00E0D5E094ED1E6AD4ED1F5A95EDF0
:102C3000005A46EE20DAD5ED014A95ED024AD5ED6F
:102C4000033A95ED043AD5ED052A45EEA0DA95ED67
:102C5000062AD5ED071A96ED03EA45EE00DA44EEB2
:102C600080DA44EE00DA43EEA0DA43EE20DA42EEF8
:102C700080DA42EE00DA41EE81DA95ED081A41EE93
:102C800020DAD5ED090A40EE8EDA3CEE8DEA3EEE12
:102C90000CEA3EEE2BEA3EEE0BEA3EEE2AEA3EEE70
:102CA0000AEA3EEE29EA3EEE09EA3EEE28EA3EEE68
:102CB00027EA3EEE07EA3EEE26EA3EEE06EA3EEE62
:102CC00025EA3EEE05EA3EEE24EA3EEE04EA3EEE5A
:102CD00023EA3EEE03EA3EEE22EA3EEE02EA3EEE52
:102CE00021EA3EEE01EA3EEE20EACDEE8EEAC5EDA7
:102CF00011EAD5ED0ADA7DEEAEDA00E057E06CEECF
:102D000080CA39494DEE00CA4CEE00CA4BEE80CA6B
:102D10004BEE00CA4AEE80CA4AEE00CA49EE80CAAB
:102D200049EE00CA48EE80CA47EE80CA47EE00CAA4
:102D300046EE80CA46EE00CA45EE80CA45EE00CA9D
:102D400044EE80CA44EE00CA43EE80CA43EE00CA95
:102D500042EE80CA42EE00CA41EE80CA41EE00CA8D
:102D60009FED201A40EE80CADFED1C0A8CEE8E0A21
:102D700085ED110A3DEE800A85ED0A0A30EE200A43
:102D8000DFED170A86ED000A60EE200ABCEEC00AED
:102D9000C0EE811A10EE100AC6ED141A086095ED07
:102DA0000F0A85ED0C0A95ED0D0A85ED0B0A0F490A
:102DB000306D884202DC00EE100A03E09FED0C0A41
:102DC00086ED140AB5EEC00AF1EE10FA01D286EDD6
:102DD000148ABDEC0E8BBDE8F081000000406C440D
:102DE0000000C84200400345340800400000704223
:102DF000000070427047704770B502680446106862
:102E0000D168536910F00F0F51D003F0010501F4A0
:102E1000907635435DD0C20705D0CA0503D5E26B75
:102E200042F00102E263420705D5DA0703D0E26B04
:102E300042F00202E263820705D5DA0703D0E26BB3
:102E400042F00402E263020705D5DA0703D0E26B21
:102E500042F00802E263E26B002A34D0800604D517
:102E6000880602D5204600F054FC20684069E16BDA
:102E7000C0F3801001F008010143204624D000F087
:102E80003AFC2068416949061AD5416921F04001A0
:102E90004161606BA0B11B490165606BFDF7F4FFF8
:102EA000002810D0606B016DBDE8704008478306B4
:102EB0000FD58B060DD52046BDE8704000F029BC2B
:102EC0002046FFF798FF70BDFFF795FF0020E063F5
:102ED00070BD030606D50B0604D52046BDE870403C
:102EE00000F0B8BD4006F3D54806F1D5D1682046BC
:102EF00021F04001D160202184F8391000F0A1F8C0
:102F000070BD0000E736000870B5040004D094F8E6
:102F10003900002510B106E0012070BD84F838505A
:102F2000204600F023F8242084F839002068C16886
:102F300021F40051C160204600F036FC2068016990
:102F400021F4904101612068416921F02A01416129
:102F50002068C16841F40051C160E563202084F815
:102F6000390084F83A00002070BD0000F0B587B049
:102F7000044614216846FDF75BF92C4A20680025B9
:102F80002B4902240726904227D129481430026891
:102F900042F010020260006800F01000059008681E
:102FA00040F0010008600868224F00F00100059021
:102FB00048158DE83100CDE9034669463846FEF7ED
:102FC000FDF860028DE831000320CDE90306694673
:102FD0003846FEF7F3F807B0F0BD174A9042FAD131
:102FE00013481030026842F480220260006800F446
:102FF00080200590086840F0040008600868694671
:1030000000F0040005904FF440608DE83100CDE9F8
:1030100003460A48FEF7D2F8002211462720FEF7A1
:1030200021FA2720FEF710FAD5E700000010014032
:1030300030380240000002400048004000080240D2
:1030400070477047FEE700007FB500241F480094DA
:10305000019402941C490394016001254FF48031CE
:103060000561C0E90114057680F820401849C0E9DF
:103070000A140526C661C46080F830504561FDF72A
:10308000ECFDCDE90045694610480294FDF73CFD92
:103090000224CDE9005469460C48FDF735FD009443
:1030A0000324694609480194FDF72EFD0094042489
:1030B000694606480194FDF727FDCDE900466946BB
:1030C0000248FDF721FD7FBD00200140780100206E
:1030D0000100000F2DE9F04387B014216846FDF789
:1030E000A7F833480024016841F004010160016839
:1030F00001F004010591016841F08001016001685F
:1031000001F080010591016841F001010160016851
:1031100001F001010591016841F0100101600168B1
:1031200001F010010591016841F00801016000689B
:10313000204F00F008000590002220213846FEF7BD
:103140001DF9DFF874804FF478660022314640465E
:10315000FEF714F9DFF864900022FF214846FEF7DD
:103160000DF9202000900125CDE90154694638462B
:103170000394FEF723F80096CDE9015469464046D2
:103180000394FEF71BF84FF47070CDE90004694614
:103190000B480294FEF712F8FF200090CDE901548D
:1031A000694648460394FEF709F807B0BDE8F08386
:1031B000303802400000024000100240000C024083
:1031C0000008024010B588B01C216846FDF730F8B1
:1031D0000E480D490024C0E9001440F63301C0E94F
:1031E000024104618461FEF758FD0848FEF77BFF49
:1031F0006020CDE90004029400226946034804944B
:10320000FEF709FF08B010BD001C0040600200205E
:1032100010B588B01C216846FDF70AF80E480D4924
:103220000024C0E9001444F2A111C0E90241046184
:103230008461FEF732FD0848FEF755FF6020CDE9B6
:10324000000402940022694603480494FEF7E3FE5A
:1032500008B010BD00200040A002002010B58AB0C8
:10326000002407941C2168460894FCF7E1FF1248EB
:103270001049C0E9001440F63301C0E9024104617D
:103280008461FEF730FF079407A90B480894FEF706
:10329000E3FC6020009041F28830CDE90104002277
:1032A000694605480494FEF7B6FE0348FEF788FE1B
:1032B0000AB010BD00080040E0010020FEE77047A2
:1032C000704770B505460068C168490613D44FF0D1
:1032D000FF31C160FEF758F804464FF47A7606E0F5
:1032E000FEF752F8001BB04201D9032070BD2868D8
:1032F000C0684006F4D5002070BD7047FEF74AB89C
:1033000030B597B030216846FCF792FF14210CA825
:10331000FCF78EFF00241F48119412941394149408
:10332000016841F080510160006800F08050159004
:103330001948016841F4804101600068022500F4E9
:1033400080401590092000904FF4803001900120BA
:10335000CDE905058005079008AA0420A82182E888
:1033600023000B906846FEF735FA0F20CDE90C05D7
:103370004FF4A050CDE90E40E802109005210CA8B2
:10338000FEF740F928021490119511A8FEF79CF859
:1033900017B030BD4038024000700040104801684E
:1033A00041F4700101600F48016841F001010160C2
:1033B0000C4A00210832116002680B4B1A4002606F
:1033C000031D0A4A1A60026822F48022026005483E
:1033D0000C300160024958068039086070470000CF
:1033E00088ED00E000380240FFFFF6FE10300024B8
:1033F0000148FEF732BD0000200200200148FEF720
:103400002CBD0000A00200200148FEF726BD0000F0
:1034100060020020F0B50268254D264E264FDFF8E9
:103420009CC0274B4FF0804EA84209D0704507D072
:10343000B04205D0B84203D0604501D0984203D1D4
:1034400022F070044A682243A8421BD0704519D06C
:10345000B04217D0B84215D0604513D0984211D071
:10346000184CA0420ED0184CA0420BD0174CA042D2
:1034700008D0174CA04205D0164CA04202D0164CE2
:10348000A04203D122F44074CA6822434C6922F05E
:103490008002224302608A68C2620A688262A8428D
:1034A00001D0984201D10969016301214161F0BD58
:1034B000000001400004004000080040000C0040F3
:1034C0000004014000400140004401400048014028
:1034D00000180040001C00400020004010B501F022
:1034E0001F010123046A8B409C430462036A8A40E3
:1034F0001343036210BD10B5846842EA032224F42A
:103500007F440A432243826010BD826822F0700229
:103510000A4342F00701816070470000F0B5026A7B
:1035200022F001020262026A43688469114E24F0AB
:1035300073050C68104F2C4322F002058A682A4359
:10354000B04201D0B84205D122F00805CA682A432A
:1035500022F00402B04201D0B84205D14D6923F4F3
:1035600040731D438B692B43436084614968416309
:103570000262F0BD0000014000040140F0B5026AA3
:1035800022F010020262026A436884690D6824F422
:10359000E64444EA05248D6822F0200242EA05123E
:1035A0000F4D104EA84201D0B04206D1CF6822F094
:1035B000800242EA071222F04002A84201D0B04243
:1035C00007D14D6923F4406343EA85038D6943EADB
:1035D000850343608461496881630262F0BD000035
:1035E0000000014000040140F0B5026A22F480723C
:1035F0000262026A4368C46922F4007224F073050F
:103600000C68124E2C438D6842EA05220E4DA842EA
:1036100001D0B04206D1CF6822F4006242EA07220C
:1036200022F48062A84201D0B04207D14D6923F450
:10363000405343EA05138D6943EA05134360C461AF
:103640004968C1630262F0BD00000140000401400E
:1036500030B5026A22F480520262036A4268C46989
:103660000D6824F4E64444EA05248D6823F40053ED
:1036700043EA0533084DA84202D0084DA84204D1C0
:103680004D6922F4804242EA85124260C461496871
:103690000164036230BD00000000014000040140ED
:1036A00010B5046A036A23F001030362836923F0FF
:1036B000F00343EA021324F00A020A438361026220
:1036C00010BD10B5036A23F0100303628469036A16
:1036D00024F4704444EA023223F0A00343EA0111C7
:1036E0008261016210BD10B5806B0021C185C1846B
:1036F000FFF781FB10BD0168CA6822F49072CA60AE
:1037000001684A6922F001024A61202180F83A10DA
:10371000704710B590F83A10222901D0022010BD50
:103720008168B1F5805F11D00169002901681FD05F
:10373000496801F07F03816A4A1C82620B70C18D67
:10374000491E0904090CC18518D02BE00269816A61
:10375000002A0268526805D0D2B20A80816A491CE8
:103760008162ECE7C2F308020A80816A891CF7E7EC
:103770004A68816A4B1C83620A70E0E70168CA6884
:1037800022F02002CA600168CA6822F48072CA600E
:1037900001684A6922F001024A61202180F83A104A
:1037A000FFF74EFC002010BD2DE9F04104460068F3
:1037B0000169E26821F4405111430161A168206967
:1037C000E26901436069104301432068C26849F21D
:1037D0000C639A430A43C26020684169A26921F4DC
:1037E000407111434161E0696425B0F5004F974A8B
:1037F000974920684FF032083FD0884201D090426C
:103800007CD1FDF7A7FF00EBC00101EB0010616860
:103810008900B0FBF1F6FDF79DFF00EBC00101EB65
:10382000001061688900B0FBF1F0B0FBF5F06FF0BB
:103830001801484306EB800108EB0110B0FBF5F0DE
:1038400000F0F006FDF786FF00EBC00101EB001071
:1038500061688900B0FBF1F0B0FBF5F006EB0016F3
:10386000FDF778FF00EBC00101EB001061688900F3
:10387000B0FBF1F7FDF76EFFD2E0884201D0904235
:103880003DD1FDF767FF00EBC00101EB001061685F
:103890004900B0FBF1F0B0FBF5F00601FDF75AFF6F
:1038A00000EBC00101EB001061684900B0FBF1F7CB
:1038B000FDF750FF00EBC00101EB0010616849000B
:1038C000B0FBF1F0B0FBF5F06FF01801484307EBE7
:1038D000800108EBC100B0FBF5F000F0F80006EB4A
:1038E0004006FDF737FF00EBC00101EB00106168F7
:1038F0004900B0FBF1F7FDF72DFF3CE055E0FDF787
:1039000019FF00EBC00101EB001061684900B0FB3A
:10391000F1F0B0FBF5F00601FDF70CFF00EBC00184
:1039200001EB001061684900B0FBF1F7FDF702FF01
:1039300000EBC00101EB001061684900B0FBF1F041
:10394000B0FBF5F06FF01801484307EB800108EB7E
:10395000C100B0FBF5F000F0F80006EB4006FDF703
:10396000E9FE00EBC00101EB001061684900B0FB0B
:10397000F1F7FDF7DFFE00EBC00101EB001061681D
:103980004900B0FBF1F0B0FBF5F06FF018014843CF
:1039900007EB800108EBC100B0FBF5F000F0070079
:1039A000216830448860BDE8F081FDF7C3FE00EB7C
:1039B000C00101EB001061688900B0FBF1F6FDF772
:1039C000B9FE00EBC00101EB001061688900B0FB9B
:1039D000F1F0B0FBF5F06FF01801484306EB800101
:1039E00008EB0110B0FBF5F000F0F006FDF7A2FEC9
:1039F00000EBC00101EB001061688900B0FBF1F041
:103A0000B0FBF5F006EB0016FDF794FE00EBC001ED
:103A100001EB001061688900B0FBF1F7FDF78AFE49
:103A200000EBC00101EB001061688900B0FBF1F010
:103A3000B0FBF5F06FF01801484307EB800108EB8D
:103A40000110B0FBF5F000F00F00A9E700140140F1
:103A50000010014090F83910212901D00220704750
:103A60008168B1F5805F016A0BD04A1C026202686E
:103A700009785160C18C491E0904090CC1840ED01B
:103A800017E009880268C1F3080151600169002943
:103A9000016A02D0491C0162ECE7891CFBE701685E
:103AA000CA6822F08002CA600068C16841F0400123
:103AB000C1600020704700000148FFF79DB9000079
:103AC00020030020FEE700000FB4084B10B504A946
:103AD00002AA039800F0EEF8044602A9002000F0C4
:103AE00080FC204610BC5DF814FB0000E343000896
:103AF0000907090E002804DB00F1E02080F800141B
:103B0000704700F00F0000F1E02080F8141D7047AE
:103B100002E008C8121F08C1002AFAD17047704796
:103B2000002001E001C1121F002AFBD170470000F4
:103B30002DE9FF5F82B00021DDE90430020DDDF8E0
:103B400040B0034318D044F61050A2F2FF32424373
:103B50001514119801281FD0A5EB0B00401C5FEA3B
:103B6000000A4FF000064E4FDFF83891B04650463D
:103B700015D5CAF1000413E0119801244AA30128C5
:103B800001D16FEA0B010298119AC0E90031C0E936
:103B9000024206B0BDE8F09FCBF10000DFE704462B
:103BA0000021404A491842EB0450CDE9001012E0D0
:103BB000E00707D032463B4640464946FCF7EAFB61
:103BC0008046894632463B4610461946FCF7E2FBE2
:103BD00006460F466410002CEAD1DDE90401DDE958
:103BE0000023BAF1000F06DAFCF7D4FB42464B463D
:103BF000FCF7D0FB05E0FCF73FFC42464B46FCF7E8
:103C00003BFC04460E460022284BFCF7E1FC03D89F
:103C10004FF0FF30014607E00022254B2046314699
:103C2000FCF711FBFCF7E3FD102409E0002C0ADB94
:103C30000A220023FCF7C4FA039B30321A55641E93
:103C400050EA0102F2D1641C039AC4F11103144436
:103C5000119A012A03D0012208430DD10AE008433A
:103C600004D000204FF0110B119072E7A3EB0B056D
:103C70006D1E0DE05B4504DD4FF0000205F101050E
:103C800004E003DA4FF00002A5F10105002AECD0B0
:103C900002981199C0E90231C0E9004579E70000B6
:103CA000000014400000F03F300000000000F0432E
:103CB0000000E03F2DE9FF4F95B09B468946064640
:103CC00000250FE2252877D100242746F84A012154
:103CD000059400E0044316F8013F203B01FA03F08D
:103CE0001042F7D130782A2811D06FF02F033078A6
:103CF000A0F13002092A16D8059A44F0020402EB1A
:103D0000820203EB42021044761C0590EFE759F85B
:103D1000042B0592002A03DA504244F40054059023
:103D200044F00204761C30782E2816D116F8010FC4
:103D300044F004042A280DD06FF02F023078A0F14F
:103D40003003092B09D807EB870302EB4303C7189D
:103D5000761CF3E759F8047B761C30786C280FD07A
:103D600006DC4C2817D068280DD06A2814D104E04E
:103D7000742810D07A280FD10DE044F400140AE022
:103D800044F4801401E044F440147278824202D179
:103D900004F58014761C761C307866280BD013DC72
:103DA000582877D009DC002875D04528F6D0462859
:103DB000F4D047281AD19DE118E0632835D0642853
:103DC00079D0652812D195E1702873D008DC672876
:103DD000F1D069286FD06E280DD06F2806D1B5E0DC
:103DE00073282CD0752875D0782874D05A46179926
:103DF00090476D1C75E1C4F30250022809D00328D6
:103E00000DD0D9F8001004280DD00D6009F1040977
:103E100067E1D9F80010EA17C1E90052F6E7D9F8CE
:103E200000100D80F2E70D70F0E719F8041B8DF813
:103E3000001000208DF80100EA46012003E059F847
:103E400004AB4FF0FF3061074FF0000102D40DE0EA
:103E500008F101018846B9420FDA8045F8DB1AF80B
:103E600008100029F4D108E008F1010188468142D8
:103E7000FADB1AF808100029F6D105985B46A0EB8A
:103E8000080721463846179A00F094FA284400EBB8
:103E9000080507E04DE029E10DE01AF8010B5A464C
:103EA00017999047B8F10108F7D25B46214638468A
:103EB000179A13E142E00A220092C4F302524FF033
:103EC000000A022A08D059F804CB032A4FEAEC7101
:103ED0000AD00DE029E02AE009F1070121F00702EC
:103EE000F2E802C1914609E00FFA8CFC4FEAEC714E
:103EF000042A03D14FFA8CFC4FEAEC71002907DA4F
:103F00000A460021DCF1000C61EB02012D2202E0E7
:103F1000220504D52B228DF80420012203E0E207BC
:103F200001D02022F7E7904659E00A2102E0102252
:103F30000DE010214FF0000A00910BE010224FF02D
:103F4000000A44F004040827009203E008224FF01E
:103F5000000A0092C4F30252022A05D059F804CB99
:103F60000021032A08D009E009F1070121F0070226
:103F7000F2E802C1914605E01FFA8CFC042A01D147
:103F80000CF0FF0C4FF00008220728D5702806D04F
:103F9000009B83F0100353EA0A0305D00EE0402291
:103FA0008DF80420012208E05CEA010206D03022EC
:103FB0008DF804208DF8050002229046009B83F0C6
:103FC000080353EA0A030AD15CEA010201D162073D
:103FD00005D530228DF804204FF001087F1E5828A7
:103FE00004D034A003900EA802900DE036A0F9E7AB
:103FF00053466046009AFCF7E3F884460398825CD7
:104000000298401E029002705CEA0100F0D1029812
:1040100006A9081A00F1200A600702D524F48034AA
:1040200000E00127574502DDA7EB0A0000E0002071
:1040300000EB0A01009005984144401A0590E00306
:1040400006D45B462146179A059800F0B3F905445B
:10405000002706E001A85A46C05D179990476D1CDD
:104060007F1C4745F6DBE0030CD55B462146179ADB
:10407000059800F09FF9054404E030205A4617994E
:1040800090476D1C0099481E00900029F5DC08E05F
:10409000029802995A460078491C02911799904754
:1040A0006D1CBAF10001AAF1010AF1DC65E1000022
:1040B00009280100303132333435363738396162FE
:1040C00063646566000000003031323334353637C2
:1040D00038394142434445460000000000F058F999
:1040E0000544761C307800287FF4ECAD19B02846E2
:1040F000BDE8F08F620700D4062709F1070222F01D
:10410000070CFCE80223E14603F000485FEA080CD4
:1041100002D00FF2702C0DE05FEA045C02D50FF2C2
:10412000682C07E05FEAC47C02D00FF2602C01E04B
:10413000AFF2700C4FF0FF3823F00043CDF850C0C1
:1041400065280CD006DC452809D046281DD0472814
:104150003DD13DE0662818D067287ED138E00021A7
:10416000112F01DB112000E0781CCDE9000106A928
:104170000EA8FFF7DDFCDDE90F010E9A0391002187
:10418000009207F1010A04914DE04FF000400097C2
:10419000CDE9011006A90EA8FFF7CAFCDDE90F0260
:1041A00003920E9B11990022DDF80CA0009304925B
:1041B00011B9791C00EB010AB7EB0A0004D4C0F175
:1041C000FF3007F1010A0490AAEB0700019044E0D8
:1041D000012F00DA01270021112F01DD112000E05D
:1041E0003846CDE9000106A90EA8FFF7A1FCDDE9DC
:1041F0000F010E9A0391002104910092BA46210703
:104200000CD40399514500DA8A46BAF1010F05DD55
:10421000009AAAF10101515C302908D0B84202DAB3
:1042200010F1040F06DA0121CDE9011015E0AAF121
:104230000101E9E7002805DC049901440491AAEB97
:10424000000102E0411C514500DD8A460499401AF4
:10425000401C01904FF000400290200704D40198C8
:10426000504501DBCDF8048000208DF84F00029806
:104270000DF14F07B0F1004F25D02B200E90029882
:104280004FF0020800280CDA404202902D200E90D8
:1042900007E00A210298FCF7CFF93031029007F8C5
:1042A000011DB8F10001A8F10108F2DC0298002814
:1042B000EFD1791E0E980870307800F0200040F0A1
:1042C000450007F8020D12A8C01B00F1070814985A
:1042D000007800B1012000EB0A01019801EBE071C8
:1042E00005984144401A401E0590E00306D45B4601
:1042F0002146179A059800F05DF805441498007857
:1043000018B15A46179990476D1CE00324D55B46B7
:104310002146179A059800F04DF805441CE00498D2
:10432000002807DBDDE90301884203DD0098405CDB
:10433000179901E0179930205A469047049805F1E3
:104340000105401C04900198401E019004D12E20CC
:104350005A46179990476D1CBAF10001AAF1010A5B
:10436000DDDC05E017F8010B5A46179990476D1CE4
:10437000B8F10001A8F10108F4DC5B462146179A68
:104380000598ABE62D0000002B0000002000000087
:104390002DE9F041044600251E461746880404D442
:1043A00005E039462020B0476D1C641EF9D528462B
:1043B000BDE8F0812DE9F041044600251E469046F7
:1043C000C80301D5302700E02027880404D505E084
:1043D00041463846B0476D1C641EF9D52846BDE8F5
:1043E000F0810A68531C0B601070704710B50120F3
:1043F00000F006F8BDE810404FF4FA6000F000BB92
:1044000010B50446000900F09BF804F00F0000F01E
:1044100097F8BDE81040322000F0F2BA10B504461B
:10442000000900F0A3F804F00F0000F09FF8BDE8C9
:104430001040322000F0E4BA10B5084C01220421EB
:104440002046FCF79BFF0A2000F0DAFA2046002203
:10445000BDE810400421FCF791BF0000000C0240B1
:1044600070B50C460546002201210B48FCF786FF7B
:104470005CB1012C0BD0022C0BD0032C0BD1D4350A
:10448000E8B2BDE87040FFF7BBBF8035F8E7C03544
:10449000F6E79435F4E770BD000C0240F0B585B046
:1044A00001240325002603950094244FCDE90146FD
:1044B00069463846FCF782FE022003958DE85100DC
:1044C00069463846FCF77AFE042003958DE85100D2
:1044D00069463846FCF772FEF02003958DE85100DE
:1044E00069463846FCF76AFE002202213846FCF78E
:1044F00045FF00F05BF82820FFF782FF4FF47A7445
:10450000204600F07DFA0C20FFF77AFF204600F0ED
:1045100077FA0620FFF774FF204600F071FA0120B9
:10452000FFF76EFF6400204600F06AFA8020FFF774
:1045300067FF204600F064FA05B0F0BD000C0240B1
:1045400010B50446002201210748FCF717FF064971
:104550001431086820F0F00242EA04100860BDE857
:104560001040FFF769BF0000000C024010B5044680
:10457000012211460748FCF701FF0649143108687B
:1045800020F0F00242EA04100860BDE81040FFF796
:1045900053BF0000000C024010B5044602E0641C4A
:1045A000FFF73CFF20780028F9D110BD194810B55D
:1045B000016841F0F0010160164C0122143C1146E3
:1045C0002046FCF7DBFE012204212046FCF7D6FE44
:1045D00044F6206000F014FA0320FFF7B1FF43F621
:1045E000982000F00DFA0320FFF7AAFF41F288346B
:1045F000204600F005FA0320FFF7A2FF204600F056
:10460000FFF90220FFF79CFF2046BDE8104000F0B4
:10461000F7B90000140C02402DED028B84B0FCF7BA
:10462000C1FEFEF76DFEFEF755FDBF480024016890
:1046300041F4800101600068224600F4800000908F
:1046400021463820FCF70EFF3820FCF7FDFEFEF770
:10465000FBFCFEF703FEB648009401940294B349B4
:10466000039401600121C0E901144AF23941C0E913
:1046700003148461FDF711FB4FF4805000906946EC
:10468000AB48FDF77EFBFEF79DFDFEF7C1FDAA4896
:10469000A8490C2501604FF41651C0E90114C4600B
:1046A000C0E904458461C461FEF72EFCA048A3491B
:1046B0006038C0E900147F218160FF21C0E9031444
:1046C00044618461FDF736FA99484FF4002160385F
:1046D000FDF70AFA98489A49403801604FF4E131F1
:1046E000C0E90114C460C0E904458461C461FEF7F7
:1046F0000BFC914905224031A1F5F470FCF72AFB2F
:104700008B488030FDF72CFB89484030FDF728FBB3
:104710008748FDF725FB864800214038FDF714FD4A
:10472000884D2C60FFF7BAFE00210846FFF798FE7F
:1047300085A0FFF731FF01210846FFF791FE87A012
:10474000FFF72AFF02210520FFF78AFE88A0FFF766
:1047500023FF40F6B830FCF71FFDFFF747FE0121AD
:104760000020FFF77DFE85A0FFF716FF0221002045
:10477000FFF776FE84A0FFF70FFF01210A20FFF765
:104780006FFE84A0FFF708FF02210A20FFF768FEF2
:1047900083A0FFF701FF00210846FFF761FE83A019
:1047A000FFF7FAFE03210020FFF75AFE82A0FFF771
:1047B000F3FE03210A20FFF753FE82A0FFF7ECFE71
:1047C000834E9FED848ADFED848A06F180046420A5
:1047D000FCF7E2FC96ED000AFCEEC00A10EE900A2F
:1047E0002860C0EE080A0021052020EEA80A86ED08
:1047F000140AFFF735FE50484A30FFF7CDFE01217D
:104800000520FFF72DFE6068FBF7B6FE41EC100BAC
:1048100072A153EC102B7348FFF756F97148FFF75C
:10482000BBFE6420FCF7B8FC01210E20FFF718FE48
:10483000A068FBF7A1FE41EC100B6A4853EC102B6B
:1048400069A1C830FFF740F96648C830FFF7A4FEF9
:104850003220FCF7A1FC02210520FFF701FEE068F1
:10486000FBF78AFE41EC100B5CA153EC102B604867
:10487000FFF72AF95E48FFF78FFE6420FCF78CFCF7
:1048800002210E20FFF7ECFD2069FBF775FE41ECDD
:10489000100B574853EC102B53A1C830FFF714F9F5
:1048A0005348C830FFF778FE3220FCF775FC94EDD2
:1048B000010AD4ED020A0321052020EE200A84ED2E
:1048C000050A94ED030AD4ED040A20EE200A84EDD3
:1048D000060AFFF7C5FD6069FBF74EFE41EC100BC1
:1048E00044A153EC102B4548FFF7EEF84348FFF77F
:1048F00053FE6420FCF750FC03210D20FFF7B0FDB0
:10490000A069FBF739FE41EC100B3C4853EC102B2F
:1049100038A1C830FFF7D8F83848C830FFF73CFE58
:104920006420FCF739FC52E7303802400040014077
:104930002002002000480040200300200028004002
:1049400000100140340800402020204D50505420D9
:104950002D2046555A5A59312020200020534841D5
:104960005649524120414953594148200000000016
:1049700032333230363430303231000056696E3ADC
:104980002020202000000000566F203A2020202008
:104990000000000049696E3A20202020200000001D
:1049A000496F203A202020202000000050574D2041
:1049B0003A2020202020000050696E3A202020203C
:1049C00020000000506F203A20202020200000000E
:1049D00000000020003003450000C84225322E327E
:1049E00066000000B442002025322E31660000002F
:1049F0004444002025332E3166000000D4450020B9
:104A000000EB401101EBC010401EFDD270470006C4
:104A10001016000610160000000000000000010241
:104A20000304060708090000000001020304000057
:104A3000504A0008000000207801000044080008E7
:104A4000804A000878010020504A0000203B0008FE
:104A5000118430034548090AD7A3BB0AD723BB0CEE
:104A60001B233B10223B2348C363C8C21BC8421010
:104A70000A14431401FF011F320182101324F400B1
:040000050800018965
:00000001FF
